:030000000207579D
:0C075700787FE4F6D8FD75813002079E23
:1006C200AF101206D98F10AF0E1206D98F0EAF0BD4
:0706D2001206D98F0BAF0ADD
:1006D900EFB4100050759006E6F828287302071643
:1006E90002071A02071E02072202072602072A0228
:1006F900072E02073202073602073A02073E0207AF
:100709004202074602074A02074E0207527E30801C
:100719003A7E3180367E3280327E33802E7E34803E
:100729002A7E3580267E3680227E37801E7E38805E
:100739001A7E3980167E4180127E42800E7E438069
:0D0749000A7E4480067E4580027E46AF0693
:010756002280
:0407E300AB07AA06B0
:1007E7007C037DE81203868F1B7C037DE8AF03AE95
:1007F70002120386AA04AB057C007D64AF03AE0238
:100807001203868F1A7C007D64AF03AE0212038643
:10081700AA04AB057C007D0AAF03AE021203868FE4
:10082700197C007D0AAF03AE02120386AF05851B54
:090837000A851A0B85190E8F10B9
:010840002295
:1003FA007FF47E011209D4120A6BE4F50F758901A4
:10040A00758CFC758A66D28CD2A9D2AF120629E401
:10041A00F50CF50DF50C85220DE50D750D00F50CA5
:10042A00E523420DAF0DAE0C1207E31206C28F0A86
:10043A00AB0AE4FDFF1209F4AB0BE4FD7F011209DC
:10044A00F4AB0EE4FD7F021209F47B2EE4FD7F0378
:10045A001209F4AB10E4FD7F041209F41209308F7B
:10046A00188E178D168C15E47F28FEFDFCAB18AA92
:10047A0017A916A815C31203E9502A1200087F3CCF
:10048A007E001209D4120BB81200037FF47E011207
:10049A0009D4120BAF7F907E011209D4120B9B7FF5
:1004AA00F47E01806330B41F30B51CD3E50D940887
:1004BA00E50C94074003120B90C3E50D9408E50C74
:1004CA0094075003120B9B30B40D20B50A120B90FF
:1004DA007FF47E011209D430B50D20B40A120B9BA9
:1004EA007FE87E031209D420B52120B41E1200032E
:1004FA007FF47E011209D4120BAF7FF47E01120938
:10050A00D4120B9B7FE87E031209D4E4F50CF50D97
:10051A00F50C85260DE50D750D00F50CE527420D48
:10052A00D3E50D94FFE50C940F400E7B2D7D01E47D
:10053A00FF1209F4530CEF80097B207D01E4FF12BE
:10054A0009F4AF0DAE0C1207E31206C28F0AAB0A0A
:10055A007D017F011209F4AB0B7D017F021209F4C0
:10056A00AB0E7D017F031209F47B2E7D017F0412FD
:10057A0009F4AB107D017F051209F47BDF7D017F51
:10058A00061209F47B437D017F071209F4E4F51191
:10059A00F512F511852412E512751200F511E525FB
:1005AA004212AF12AE111207E31206C28F0AAB0A49
:1005BA00E4FD7F071209F4AB0BE4FD7F081209F48E
:1005CA00AB0EE4FD7F091209F47B2EE4FD7F0A12CB
:1005DA0009F4AB10E4FD7F0B1209F4AF287E001278
:1005EA0007E31206C28F0AAB0B7D017F0A1209F4D8
:1005FA00AB0E7D017F0B1209F4AB107D017F0C124B
:10060A0009F4E4F513F514C3E51494A0E513940F63
:0F061A0040030204160514E51470EC051380E884
:1009D400E4FDFCC3ED9FEC9E5015E4FBFA0BBB0059
:0F09E400010AEB64794A70F50DBD00010C80E447
:0109F30022E1
:100AA1000000000000000000000000000000000045
:090AB1000000000000000000221A
:0E0B23007F307E02EF1FAC0670011E4C70F694
:010B310022A1
:0E0B32007F307E02EF1FAC0670011E4C70F685
:010B40002292
:10000E00120B417FE01209B1E4FF1209B17FC01259
:05001E0009B1020B789E
:100AD300120B417FE01209B1E4FF1209B17FC11289
:050AE30009B1020B78CF
:10084100120B417FE01209B1E4FF1209B17FA0123E
:1008510009B1120B78120B417FE01209B1E4FF12CA
:1008610009B17FAA1209B1120B78120B417FE01274
:1008710009B1E4FF1209B17FA51209B1120B781277
:100881000B417FE01209B1E4FF1209B17FC51209E2
:04089100B1020B782D
:10089500120B417FE01209B1E4FF1209B17FA012EA
:1008A50009B1120B78120B417FE01209B1E4FF1276
:1008B50009B17FAA1209B1120B78120B417FE01220
:1008C50009B1E4FF1209B17FA51209B1120B781223
:1008D5000B417FE01209B1E4FF1209B17FE812096B
:0408E500B1020B78D9
:10095E00120B417FE01209B17F031209B1E4FF12BD
:10096E0009B1120B78120B417FE01209B17F04120C
:0A097E0009B17F641209B1020B7881
:0F0B4100D2A7D2A6120AA1C2A7120AA1C2A62247
:0C0B7800C2A7D2A6120AA1D2A7020AA1AD
:0E0B5000A20292A7D2A6120AA1C2A6020AA170
:0D0B5E00D2A6120AA1A2A7C2A6120AA122C5
:0209B1008F1A9B
:1009B300E4F51BE51A25E0F51A92A7D2A6120AA1BF
:1009C300C2A6120AA1051BE51BC3940840E5020B4E
:0109D3005EC5
:10098800E4F51BD2A7F51AE51B25E0F51BD2A61244
:100998000AA1A2A7E433421BC2A6120AA1051AE5BE
:0809A8001AC3940840E1AF1BE3
:0109B0002224
:100AFD007580FFC290D29100D2A50000E58020E75D
:040B0D00FBC2A52260
:100AE800ED6003120AFDC290C291008F8000D2A56A
:050AF8000000C2A52270
:100B1100120AFDD290C291008F8000D2A50000C2BE
:020B2100A5220B
:100A6B007D017F38120AE87F08120AE87F01120A1B
:0B0A7B00E87F06120AE87F0C020AE880
:1009F400AE07AC0353050153060FED6003430640F5
:0F0A0400430680AF06E4FD120AE8AF04020B11AF
:10062900120B417FE01209B1E4FF1209B17F3112C7
:1006390009B1120B78120B23120B23120B23120B85
:1006490023120B23120B23120B23120B23120B233E
:10065900120B23120B23120B417FE01209B1E4FFA5
:100669001209B17F351209B1120B78120B23120B43
:1006790023120B23120B23120B23120B23120B41F0
:100689007FE01209B1E4FF1209B1120B417FE112B7
:1006990009B1E4F51912098874212519F8A607E5A5
:1006A90019B40704D2028002C202120B500519E5DF
:0906B90019C3940840DF020B781C
:100A8600011C00011F00011E07011D07C180C18155
:090BA600C292D293D296C29722AA
:05000300C295C2942229
:090BAF00D292C293C296D29722A1
:0B0B9000D200C201D296C297C294228C
:0B0B9B00D201C200C292D293C2952288
:100A1300300118E51CD3951E5004D2948002C29471
:0E0A2300E51CC394144006E4F51C22C2942284
:100A3100300018E51FD3951D5004D2958002C29550
:0E0A4100E51FC394144006E4F51F22C295225F
:03000B00020ABA2C
:100ABA00C0E0C0D0758CFC758A66051C051F120A39
:090ACA0013120A31D0D0D0E03241
:100A4F0030B40630B503120BA630B40620B503122E
:0C0A5F000B9030B50620B403120B9B2254
:0A0A9600022B0000042D00000000F8
:0C0B8400D2A17F017E001209D4C2A12280
:1008E900AF8DEFFEAD8B7C00E42DF52CEC3EF52BA6
:1008F900E4F58DF58BAC2BAD2C1202CC7B7B7A14F5
:10090900792E783E120121E4FBFA7920784112020E
:100919002AE4FBFA792078411200301203058F305E
:070929008E2F8D2E8C2D2274
:0D0B6B0030A0FDD28E20A0FDC28E0208E950
:10093000D2A0120B8475291D752A5630A00C120BFB
:100940006BAF30AE2FAD2EAC2D22E52A152A7002EA
:0E0950001529D3E52A9400E529940050DE22F3
:03000800C2A3226E
:030BB800D2A322A3
:10002900020371E86480F8E933E83360110460F091
:10003900ED33EC337009E8FCE9FDEAFEEBFF22043D
:1000490060DED3EB9FEA9EE99DE8C2E78CF0C2F738
:1000590095F0400CE8CCF8E9CDF9EACEFAEBCFFB04
:1000690012033C85D0F05804700320D5B3E804701E
:10007900075002B2D502037B92D5EC0460F7E4CCB9
:10008900C0E0C398F8603B94186008400DD0E0FBCD
:10009900020353E4FBFAC9FC8028E830E406E4C90A
:1000A900FBE4CAFCE830E305E4C9CACBFCE8540721
:1000B9006010F8C3E913F9EA13FAEB13FBEC13FC2C
:1000C900D8F130F52FC3E49CFCEF9BFFEE9AFEEDCF
:1000D90099FDD0E0FBEF4E4D4C701222DB03020379
:1000E90078EC2CFCEF33FFEE33FEED33FDED30E71A
:1000F900EB020353EF2BFFEE3AFEED39FDD0E0FBA7
:1001090050130BBB000302037BED13FDEE13FEEF4F
:0801190013FFEC13FC02035379
:10012100EC4D6011E8497017ED33EC3304600DE4D8
:10013100FCFFFEFD22E933E8330470F8020371127B
:10014100033C58046009E4CC24815006285009027C
:10015100037B284003020378C0E0EB4A7044B98076
:1001610006D0E0FB020367EF4E701CBD8008EBFF79
:10017100EAFEE9FD80EBE98DF0A4FEE5F002020A5A
:10018100E9CDF9EAFEEBFFEF89F0A4FCE5F0CE89B9
:10019100F0A42EFFE435F0CD89F0A42DFEE435F076
:1001A1008067EF4E7005BD80D780C3EF8BF0A4ACA4
:1001B100F0EE8BF0A42CFCE435F0F8EF8AF0A42CDF
:1001C100E5F038FCE433CB8DF0A42CFCE5F03BF8F2
:1001D100EE8AF0A42CFCE5F038F8E433CF89F0A4E2
:1001E1002CFCE5F038CF3400CE89F0A42FFFE5F0E8
:1001F1003EFEE433C98DF0A42EFEE5F039CD8AF040
:10020100A42FFFE5F03EFEE43DFD33D0E0FB5007B7
:100211000BBB000F02037BEC2CFCEF33FFEE33FE34
:06022100ED33FD02035362
:1002270002037BEC5D046005E85904700302037167
:1002370012033C580460F6EC4860F2EC7004FDFED3
:10024700FF22C860DB2481C85009C39860025006AA
:100257000203789850CAF582E9294B4A7005AB82A8
:1002670002036775F0007C1A7880C3EF9BEE9AED66
:1002770099400DC3EF9BFFEE9AFEED99FDE842F022
:10028700DC23ACF0D0E0FFD0E0FED0E0FDAB822075
:10029700E7101BEB60BAEC2CFCEF33FFEE33FEEDFF
:1002A70033FD020353E803F830E705C0F075F000AB
:1002B700EF2FFFEE33FEED33FD40B830E7C280AAE3
:1002C70075F020800E75F010800575F0087D007EB2
:1002D700007F003392D530D5031203DBEC33401097
:1002E700EF33FFEE33FEED33FDEC33FCD5F0ED22BB
:0E02F700E5F0247EA2D513CC92E7CDCEFF22F7
:10030500EDD2E7CD33EC3392D524814006E4FFFEF0
:10031500FDFC22FCE4CFCECDCC24E0501174FF804F
:10032500EDC3CC13CCCD13CDCE13CECF13CF0470EC
:07033500F030D5DE0203DB0E
:10033C00E9D2E7C933E833F892D5EDD2E7CD33EC07
:07034C0033FC5002B2D52280
:10035300EC30E7100FBF000C0EBE00080DBD00040B
:100363000BEB6014A2D5EB13FCED92E7FD2274FFB7
:10037300FCFDFEFF22E480F8A2D574FF13FC7D8010
:03038300E480EF24
:100763000203FAE493A3F8E493A34003F68001F2AF
:1007730008DFF48029E493A3F85407240CC8C33397
:10078300C4540F4420C8834004F456800146F6DF66
:10079300E4800B0102040810204080900A86E47E66
:1007A300019360BCA3FF543F30E509541FFEE4935B
:1007B300A360010ECF54C025E060A840B8E493A322
:1007C300FAE493A3F8E493A3C8C582C8CAC583CA4D
:1007D300F0A3C8C582C8CAC583CADFE9DEE780BE05
:010AA0000055
:10038600BC000BBE0029EF8DF084FFADF022E4CC5B
:10039600F875F008EF2FFFEE33FEEC33FCEE9DEC24
:1003A600984005FCEE9DFE0FD5F0E9E4CEFD22ED6A
:1003B600F8F5F0EE8420D21CFEADF075F008EF2FB4
:1003C600FFED33FD4007985006D5F0F222C398FDA5
:0503D6000FD5F0EA2242
:0E03DB00C3E49FFFE49EFEE49DFDE49CFC2233
:1003E900EB9FF5F0EA9E42F0E99D42F0E89C45F06A
:0103F90022E1
:00000001FF
